:20480000E2E2020292920E200C200E2CD2D30202C29309200624B2400B00D203B2400600FD
:20482000D40392530C20043CD2C302028243D203001381000024B1134A03B1133C040C93B1
:184840000224B113B4000C43B1130000B113360432D01000FD3F03431D
:2048580001F500000FED07AA0000930B51DE004070FFF0007203010036010100120401006C
:1648780000000400000058480000001C0000784800000C2000007E
:04FF8000FFFFFFFF81
:04FF8400FFFFFFFF7D
:08FF8800FFFFFFFFFFFFFFFF79
:02FFCC0050489B
:02FFCE00504899
:02FFD000504897
:02FFD200504895
:02FFD400504893
:02FFD600504891
:02FFD80050488F
:02FFDA0050488D
:02FFDC0050488B
:02FFDE00504889
:02FFE000504887
:02FFE200504885
:02FFE400504883
:02FFE600504881
:02FFE80050487F
:02FFEA000048CD
:02FFEC0050487B
:02FFEE00504879
:02FFF000504877
:02FFF200504875
:02FFF400504873
:02FFF600504871
:02FFF80050486F
:02FFFA0050486D
:02FFFC0050486B
:02FFFE00324887
:020000040001F9
:200000002A14B1002200B240805A5C0192C33001B1139603B113E602B1131E03034332D2E8
:200020000343CC010D433E402000B113E80338400580C143010079400A00C14900003C40C5
:200040005001CD08B1132E04CA01EA039A5300008A6302008A6304008A63060082430C201B
:200060004D49CC01B1131402824C0E20CC0A7D42B1136002814C20001E420E204E0E4E0D5A
:20008000AE00001CCC01AC0020002D43B113A602825C0E20B24060090E203C40E803B11361
:2000A000B8034F43C293092001205F43C24F0920C63F03432A148F0000009F000000042499
:2000C0008C000000B113AE0140181A425C014018B240805A5C018F006C489F0078481324B6
:2000E00089007E4888008E480C3C0C097F4C5F0600185F4F6C48A90004000D094F13A9007E
:200100000400D908F2237AC23AD0085A4018824A5C01B11340048F0000009F000000092459
:200120008A000000033C6A13AA0004009A000000FA23281610012A14784C0943153C4B0ECD
:200140004B0DCE0DFE0BBE000100AD000100FD4EFFFF1F83FA23043CAD000100FD4CFFFFB9
:20016000580319533992E83718B3F6237B4C7F4CCE0B5E0ECB0F5B0F3BF00F000BDE3FF07D
:200180000F003F5003003F9012000C207E4C3EB0800007247A4C3EF07F004A4A46180A5A85
:2001A0000EDA0F5E3B90FF0FCA23281610011A14C90C1B4902000A43293CCC0A3D400C005B
:2001C000B113D0032C524C0E4C0DEC091E4C08008C930A000D0C3F0C0400CC0F12200E93B1
:2001E00010208E006C489E0078480F246E4D5E0600185E4E6C48AD000100CC0DCD0F4E13A1
:20020000023CB113FE031B4902001A530A9BD52B191610012A14CA0DC90C3F400B000F5A46
:2002200008433F90810002380C43183CCF0A6F53C24F08208C0000203D4009008E00001C96
:20024000B113A602085CCD0ACE084E0E4E0DAE00001CCC09B113A602085CCC0828161001D8
:200260003A14C80DC70C4A434F43CE0F133C4D4AED07694D4B437B920C2C4D4B1C43B1136E
:20028000240449BC02205E53013C5F535B537B92F42B5A534A98EB2B4F4F47180F5F4C4EEB
:2002A0000CDF371610013A140F430943099D182CCB094B0E4B0DEB0C674B3A4080000A935A
:2002C0000C24C80748FACB0F4B0E4B0DEB0ECB4800001F535A030A93F4231953099DE82B9E
:2002E000CC0F37161001F2D010002402F2D010002C02D2C30A02D2C30C02D2D30402E2C23A
:200300000A02E2C20C02E2D20402F2D010000A02F2F0EF000C02F2D01000040210018243FA
:20032000D2038243D403B240E000C4038243C203B2401402C003B2400F275203B2401000DF
:200340004203B240140240031001B24000A5A0053F408004824FA6053F408004824FA405C4
:200360003F401315824FA8053F4001A5824FA00510011F4C01001E4C03000E9302200F936E
:200380000924AD000100CD43FFFF1F830E73F9230F93F7231001B24010A54001F240A500A9
:2003A0006101B2404C006201B2403301640182436601C243610110010C9309240D143D40A1
:2003C0003C1F1D83FE230D16003C1C83F7231001021232C20343824CC004824DC8041C42FF
:2003E000CA04324103431001CF0C0E9307244D4DAF000100CF4DFFFF1E83FA231001CF0CB0
:200400000E930624AF000100FF4DFFFF1E83FA231001CF0CCC0DCD0FAD0005001E4F010098
:200420008001FE031D830230CD180C5C10012C528C4D000010010343FF3F03431C43100168
:020440001001A9
:00000001FF
