:204400000F14E2E20202929202200020172CD2D302021F420020CF93001C0720B240310016
:20442000D203B2401900D403063CB2402F00D203B2401800D40392530020043CD2C30202CE
:204440008243D2030F16001381000024B113EC02B1130A040C930224B11300000C43B113C5
:0E446000FA00B113040432D01000FD3F0343F4
:20446E00017DAA0000930B51DE00000200FFF0003A03010082000100E80301000000040493
:12448E0000006E440000042000008A440000001C00005C
:04FF8000FFFFFFFF81
:04FF8400FFFFFFFF7D
:08FF8800FFFFFFFFFFFFFFFF79
:02FFCC00664489
:02FFCE00664487
:02FFD000664485
:02FFD200664483
:02FFD400664481
:02FFD60066447F
:02FFD80066447D
:02FFDA0066447B
:02FFDC00664479
:02FFDE00664477
:02FFE000664475
:02FFE200664473
:02FFE400664471
:02FFE60066446F
:02FFE80066446D
:02FFEA000044D1
:02FFEC00664469
:02FFEE00664467
:02FFF000664465
:02FFF200664463
:02FFF400664461
:02FFF60066445F
:02FFF80066445D
:02FFFA0066445B
:02FFFC00664459
:02FFFE00484475
:020000040001F9
:200000002A148F0000009F00000004248C000000B1136A0140181A425C014018B240805A5C
:200020005C018F007E449F008A441324890090448800A0440C3C0C097F4C5F0600185F4F52
:200040007E44A90004000D094F13A9000400D908F2237AC23AD0085A4018824A5C01B11329
:200060000E048F0000009F00000009248A000000033C6A13AA0004009A000000FA2328162A
:2000800010012A14784C0943153C4B0E4B0DCE0DFE0BBE000100AD000100FD4EFFFF1F83C3
:2000A000FA23043CAD000100FD4CFFFF580319533992E83718B3F6237B4C7F4CCE0B5E0E82
:2000C000CB0F5B0F3BF00F000BDE3FF00F003F5003003F9012000C207E4C3EB08000072479
:2000E0007A4C3EF07F004A4A46180A5A0EDA0F5E3B90FF0FCA2328161001B1002000B2400A
:20010000805A5C0192C33001B1138203B1135802B113C002034332D20343D1430000C1438D
:2001200001005C4101000D433CD01000B113FA03CC01EC033D401E00B113140382430220DA
:2001400082430020CC013D402000B113D001824C0220929202200020FC2B3C402C01B113D1
:20016000A403D1530100DD3F03431A14C90C1B4902000A43293CCC0A3D400C00B113BC0354
:200180002C524C0E4C0DEC091E4C08008C930A000D0C3F0C0400CC0F12200E9310208E00CA
:2001A0007E449E008A440F246E4D5E0600185E4E7E44AD000100CC0DCD0F4E13023CB11373
:2001C000D4031B4902001A530A9BD52B191610012A14CA0DC90C3F4009000F5A08433F909B
:2001E000810002380C43163CC24A0C208C0004203D4009008E00001CB1131802085CCD0A72
:20020000CE084E0E4E0DAE00001CCC09B1131802085CCC08281610013A140F430943099DBB
:20022000182CCB094B0E4B0DEB0C674B3A4080000A930C24C80748FACB0F4B0E4B0DEB0EF0
:20024000CB4800001F535A030A93F4231953099DE82BCC0F37161001F2D010002402F2D0F0
:2002600010002C02D2C30A02D2C30C02D2D30402E2C20A02E2C20C02E2D20402F2D0100063
:200280000A02F2F0EF000C02F2D01000040210011C420E201D4210203E400D663F401900E6
:2002A000B1135E033C505FF33D606E3C3CF33DF0FF7F824C0E20824D10201C420E20100182
:2002C0008243D2038243D403B240E000C4038243C203B2401402C003B2400F275203B2408B
:2002E00010004203B240140240031001B24000A5A0053F404004824FA6053F404004824F3E
:20030000A4053F401315824FA8053F4001A5824FA00510012A14C90DC80C0A430A990B344C
:20032000B1139002CF0A4F0E4F0DEF08CF4C00001A530A99F53B281610011F4C01001E4C5E
:2003400003000E9302200F930924AD000100CD43FFFF1F830E73F9230F93F723100102122C
:2003600032C20343824CD004824DD204824EE004824FE2041C42E4041D42E6043241034349
:200380001001B24010A54001F240A5006101B2404C006201B2403301640182436601C243CE
:2003A000610110010C9309240D143D403C1F1D83FE230D16003C1C83F7231001021232C213
:2003C0000343824CC004824DC8041C42CA04324103431001CF0C0E930624AF000100FF4D12
:2003E000FFFF1E83FA231001CF0CCC0DCD0FAD0005001E4F01008001D403824C0E20824D5D
:10040000102010010343FF3F03431C431001100160
:00000001FF
